:100000000C9434000C9449000C9449000C94490061
:100010000C9449000C9449000C9449000C9449003C
:100020000C9449000C9449000C9449000C9449002C
:100030000C9449000C9449000C9449000C9449001C
:100040000C9449000C9449000C9449000C9449000C
:100050000C9449000C9449000C9449000C944900FC
:100060000C9449000C94490011241FBECFEFD8E036
:10007000DEBFCDBF11E0A0E0B1E0E2E3FDE002C0F1
:1000800005900D92A631B107D9F70E944B000C9450
:1000900097060C940000CF93DF93CDB7DEB7A697F9
:1000A0000FB6F894DEBF0FBECDBF8AE290E02FEF0F
:1000B000FC01208384E290E02FEFFC0120838BE29F
:1000C00090E0FC01108285E290E0FC01108287E064
:1000D000E0E0F1E0DE01519601900D928A95E1F7A2
:1000E00080E090E0A0E2B2E48B839C83AD83BE838A
:1000F00020E030E04AE753E46B817C818D819E8172
:100100000E940206DC01CB018F839887A987BA87FA
:1001100020E030E040E85FE36F81788589859A854B
:100120000E947C0588232CF481E090E09C878B87DB
:100130003FC020E03FEF4FE757E46F817885898526
:100140009A850E94FD0518164CF520E030E040E24B
:1001500051E46B817C818D819E810E940206DC01CD
:10016000CB01BC01CD010E948105DC01CB019C8744
:100170008B870FC089E190E09E878D878D859E8556
:100180000197F1F79E878D878B859C8501979C87CA
:100190008B878B859C85892B69F714C06F81788547
:1001A00089859A850E948105DC01CB019C878B871C
:1001B0008B859C85988B8F878F8598890197F1F720
:1001C000988B8F87CE0141960E943D048FE0E7E037
:1001D000F1E0DE01589601900D928A95E1F71A82BE
:1001E000198213C09E01285E3F4F89819A81820F38
:1001F000931FFC012081CE014196622F0E94C00214
:1002000089819A8101969A8389839E01285E3F4F56
:1002100089819A81820F931FFC018081882311F7C5
:100220000E94720480E090E0A6960FB6F894DEBFBC
:100230000FBECDBFDF91CF910895CF93DF9300D054
:1002400000D000D0CDB7DEB79E838D831C821B8289
:100250002B813C818D819E818217930748F01A8201
:100260001982000089819A8101969A838983F9CF46
:10027000000026960FB6F894DEBF0FBECDBFDF910B
:10028000CF910895CF93DF93CDB7DEB76F970FB6B9
:10029000F894DEBF0FBECDBF9E8F8D8F6F8F8D8D7B
:1002A0009E8DFC01808191812F8DFC0120838D8D9D
:1002B0009E8DFC0182819381FC018081482F8D8D70
:1002C0009E8DFC018481282F30E081E090E002C007
:1002D000880F991F2A95E2F78095242F28238D8D6A
:1002E0009E8DFC0182819381FC0120838D8D9E8DEA
:1002F000FC0182819381FC018081482F8D8D9E8D30
:10030000FC018581282F30E081E090E002C0880F59
:10031000991F2A95E2F78095242F28238D8D9E8D95
:10032000FC0182819381FC0120838D8D9E8DFC01D7
:1003300082819381FC018081482F8D8D9E8DFC01EF
:100340008681282F30E081E090E002C0880F991F5D
:100350002A95E2F7242F282B8D8D9E8DFC0182811A
:100360009381FC01208380E090E0A8E4B2E48F87D1
:10037000988BA98BBA8B20E030E04AE753E46F8575
:10038000788989899A890E940206DC01CB018B8BCE
:100390009C8BAD8BBE8B20E030E040E85FE36B8947
:1003A0007C898D899E890E947C0588232CF481E0BC
:1003B00090E0988F8F8B3FC020E03FEF4FE757E4EE
:1003C0006B897C898D899E890E94FD0518164CF5E4
:1003D00020E030E040E251E46F85788989899A898C
:1003E0000E940206DC01CB01BC01CD010E94810507
:1003F000DC01CB01988F8F8B0FC089E190E09A8F41
:10040000898F898D9A8D0197F1F79A8F898F8F89BE
:10041000988D0197988F8F8B8F89988D892B69F78D
:1004200014C06B897C898D899E890E948105DC01BD
:10043000CB01988F8F8B8F89988D9C8F8B8F8B8D15
:100440009C8D0197F1F79C8F8B8F8D8D9E8DFC017C
:1004500082819381FC018081482F8D8D9E8DFC01CE
:100460008681282F30E081E090E002C0880F991F3C
:100470002A95E2F78095242F28238D8D9E8DFC01EF
:1004800082819381FC01208380E090E0A8E4B2E4C3
:1004900089839A83AB83BC8320E030E04AE753E44E
:1004A00069817A818B819C810E940206DC01CB01EB
:1004B0008D839E83AF83B88720E030E040E85FE320
:1004C0006D817E818F8198850E947C0588232CF424
:1004D00081E090E09A8789873FC020E03FEF4FE7B7
:1004E00057E46D817E818F8198850E94FD051816E5
:1004F0004CF520E030E040E251E469817A818B8163
:100500009C810E940206DC01CB01BC01CD010E944E
:100510008105DC01CB019A8789870FC089E190E0D2
:100520009C878B878B859C850197F1F79C878B87B0
:1005300089859A8501979A87898789859A85892BE4
:1005400069F714C06D817E818F8198850E94810535
:10055000DC01CB019A87898789859A859E878D875B
:100560008D859E850197F1F79E878D8700006F9698
:100570000FB6F894DEBF0FBECDBFDF91CF910895C7
:10058000CF93DF93CDB7DEB76F970FB6F894DEBF8A
:100590000FBECDBF9E8F8D8F6F8F8D8D9E8DFC0179
:1005A000808191812F8DFC0120838D8D9E8DFC019A
:1005B00082819381FC018081482F8D8D9E8DFC016D
:1005C0008481282F30E081E090E002C0880F991FDD
:1005D0002A95E2F7242F282B8D8D9E8DFC01828198
:1005E0009381FC0120838D8D9E8DFC0182819381FE
:1005F000FC018081482F8D8D9E8DFC018581282FE7
:1006000030E081E090E002C0880F991F2A95E2F760
:100610008095242F28238D8D9E8DFC0182819381CE
:10062000FC0120838D8D9E8DFC0182819381FC01D4
:100630008081482F8D8D9E8DFC018681282F30E092
:1006400081E090E002C0880F991F2A95E2F7242FDD
:10065000282B8D8D9E8DFC0182819381FC0120834E
:1006600080E090E0A8E4B2E48F87988BA98BBA8BE6
:1006700020E030E04AE753E46F85788989899A89D8
:100680000E940206DC01CB018B8B9C8BAD8BBE8B59
:1006900020E030E040E85FE36B897C898D899E89AA
:1006A0000E947C0588232CF481E090E0988F8F8B4A
:1006B0003FC020E03FEF4FE757E46B897C898D898D
:1006C0009E890E94FD0518164CF520E030E040E2BE
:1006D00051E46F85788989899A890E940206DC0134
:1006E000CB01BC01CD010E948105DC01CB01988FBB
:1006F0008F8B0FC089E190E09A8F898F898D9A8DB9
:100700000197F1F79A8F898F8F89988D0197988F2C
:100710008F8B8F89988D892B69F714C06B897C89A1
:100720008D899E890E948105DC01CB01988F8F8B7A
:100730008F89988D9C8F8B8F8B8D9C8D0197F1F776
:100740009C8F8B8F8D8D9E8DFC0182819381FC010E
:100750008081482F8D8D9E8DFC018681282F30E071
:1007600081E090E002C0880F991F2A95E2F78095FA
:10077000242F28238D8D9E8DFC0182819381FC0185
:10078000208380E090E0A8E4B2E489839A83AB837D
:10079000BC8320E030E04AE753E469817A818B81B1
:1007A0009C810E940206DC01CB018D839E83AF8376
:1007B000B88720E030E040E85FE36D817E818F8183
:1007C00098850E947C0588232CF481E090E09A872C
:1007D00089873FC020E03FEF4FE757E46D817E817E
:1007E0008F8198850E94FD0518164CF520E030E0B9
:1007F00040E251E469817A818B819C810E940206EA
:10080000DC01CB01BC01CD010E948105DC01CB01E3
:100810009A8789870FC089E190E09C878B878B85B9
:100820009C850197F1F79C878B8789859A8501972D
:100830009A87898789859A85892B69F714C06D8184
:100840007E818F8198850E948105DC01CB019A878A
:10085000898789859A859E878D878D859E85019755
:10086000F1F79E878D8700006F960FB6F894DEBF74
:100870000FBECDBFDF91CF910895CF93DF9300D00E
:10088000CDB7DEB79A83898389819A8160E30E941C
:10089000420189819A8160E30E94420189819A81A3
:1008A00060E30E94420189819A8168E30E944201CB
:1008B00089819A8168E00E94420189819A8161E080
:1008C0000E94420189819A8166E00E9442018981E9
:1008D0009A816CE00E94420100000F900F90DF911E
:1008E000CF910895CF93DF93CDB7DEB76C970FB656
:1008F000F894DEBF0FBECDBF84E290E0FC01208102
:1009000084E290E02062FC01208385E290E0FC011B
:10091000208185E290E02062FC01208380E090E06D
:10092000A8E4B4E48F87988BA98BBA8B20E030E0E1
:100930004AE753E46F85788989899A890E9402067B
:10094000DC01CB018B8B9C8BAD8BBE8B20E030E030
:1009500040E85FE36B897C898D899E890E947C05D4
:1009600088232CF481E090E0988F8F8B3FC020E0AB
:100970003FEF4FE757E46B897C898D899E890E9400
:10098000FD0518164CF520E030E040E251E46F859B
:10099000788989899A890E940206DC01CB01BC0111
:1009A000CD010E948105DC01CB01988F8F8B0FC098
:1009B00089E190E09A8F898F898D9A8D0197F1F75F
:1009C0009A8F898F8F89988D0197988F8F8B8F89B8
:1009D000988D892B69F714C06B897C898D899E89D4
:1009E0000E948105DC01CB01988F8F8B8F89988DB8
:1009F0009C8F8B8F8B8D9C8D0197F1F79C8F8B8FAC
:100A000085E290E0FC01208185E290E02F7DFC01F1
:100A1000208380E090E0A8E4B4E489839A83AB83E8
:100A2000BC8320E030E04AE753E469817A818B811E
:100A30009C810E940206DC01CB018D839E83AF83E3
:100A4000B88720E030E040E85FE36D817E818F81F0
:100A500098850E947C0588232CF481E090E09A8799
:100A600089873FC020E03FEF4FE757E46D817E81EB
:100A70008F8198850E94FD0518164CF520E030E026
:100A800040E251E469817A818B819C810E94020657
:100A9000DC01CB01BC01CD010E948105DC01CB0151
:100AA0009A8789870FC089E190E09C878B878B8527
:100AB0009C850197F1F79C878B8789859A8501979B
:100AC0009A87898789859A85892B69F714C06D81F2
:100AD0007E818F8198850E948105DC01CB019A87F8
:100AE000898789859A859E878D878D859E850197C3
:100AF000F1F79E878D8709CF0E94B00508F481E049
:100B000008950E94DC0588F09F5798F0B92F992727
:100B1000B751B0F0E1F0660F771F881F991F1AF0E8
:100B2000BA95C9F714C0B13091F00E94F605B1E052
:100B300008950C94F605672F782F8827B85F39F051
:100B4000B93FCCF3869577956795B395D9F73EF481
:100B500090958095709561957F4F8F4F9F4F089529
:100B6000990F0008550FAA0BE0E8FEEF16161706BE
:100B7000E807F907C0F012161306E407F50798F026
:100B8000621B730B840B950B39F40A2661F0232B3F
:100B9000242B252B21F408950A2609F4A140A695BB
:100BA0008FEF811D811D089557FD9058440F551FEB
:100BB00059F05F3F71F04795880F97FB991F61F0DF
:100BC0009F3F79F087950895121613061406551F56
:100BD000F2CF4695F1DF08C0161617061806991FC2
:100BE000F1CF86957105610508940895E894BB27B7
:100BF00066277727CB0197F908950E94B00508F47E
:100C00008FEF08950E9415060C9486060E947806C0
:100C100038F00E947F0620F0952311F00C946F06A7
:100C20000C94750611240C94F7050E94D40570F3FA
:100C3000959FC1F3950F50E0551F629FF001729F81
:100C4000BB27F00DB11D639FAA27F00DB11DAA1F90
:100C5000649F6627B00DA11D661F829F2227B00DDD
:100C6000A11D621F739FB00DA11D621F839FA00D68
:100C7000611D221F749F3327A00D611D231F849FB8
:100C8000600D211D822F762F6A2F11249F5750400F
:100C90009AF0F1F088234AF0EE0FFF1FBB1F661F8A
:100CA000771F881F91505040A9F79E3F510580F053
:100CB0000C946F060C94F7055F3FE4F3983ED4F371
:100CC000869577956795B795F795E7959F5FC1F7F7
:100CD000FE2B880F911D9695879597F9089597F9A2
:100CE0009F6780E870E060E008959FEF80EC0895D2
:100CF00000240A94161617061806090608950024FB
:100D00000A9412161306140605060895092E039474
:100D1000000C11F4882352F0BB0F40F4BF2B11F4E8
:100D200060FF04C06F5F7F4F8F4F9F4F0895F8940F
:020D3000FFCFF3
:100D32002B00250000010241565220426172656D6E
:060D42006574616C2100E4
:00000001FF
